:020000040800F2
:1000000078D6002025440108813901088339010888
:100010008539010887390108893901080000000085
:100020000000000000000000000000008B39010803
:100030008D390108000000008F390108913901084D
:10004000894901088D49010891490108954901082C
:10005000994901089D490108A1490108A5490108DC
:10006000A9490108AD490108B1490108B54901088C
:10007000B9490108BD490108C1490108C54901083C
:10008000C9490108CD490108D1490108D5490108EC
:10009000D9490108DD490108E1490108E54901089C
:1000A0009D390108AD390108B7390108C139010886
:1000B000E9490108ED490108F1490108F54901083C
:1000C000F9490108FD490108014A0108054A0108EA
:1000D000094A01080D4A0108CB390108114A0108F3
:1000E000154A0108194A01081D4A0108214A010858
:1000F000D9390108254A0108294A01082D4A010871
:10010000314A01080000000000000000354A0108E3
:10011000E3390108B53B0108394A01083D4A0108A5
:10012000414A0108454A0108494A01084D4A010867
:10013000514A0108554A0108000000000000000073
:10014000594A01085D4A0108614A0108000000009F
:10015000000000000000000000000000000000009F
:10016000654A0108694A01086D4A0108714A010897
:10017000754A0108794A01087D4A0108814A010847
:10018000854A0108894A01080000000000000000BB
:100190008D4A0108BFF34F8FDFF884180A6812F404
:1001A000E062DFF8480902430A60BFF34F8F00BFE7
:1001B000FDE7F8B50400DFF874582868060116F565
:1001C000C8560127112F07DA04EB070010F8010CBD
:1001D0000D2801D07F1CF5E7112F03DA0020E05530
:1001E0007F1CF9E710223100200003F013FD28687E
:1001F000401C286028680B2801DB00202860F1BD26
:100200002DE9FF47A025DFF81C68012210213000EE
:1002100004F07FF9DFF810783878002802D05FF01A
:100220000A0803E0DFF80408D0F80080DFF8FC9744
:10023000D9F800A0BAF1010AB8F1010F2ADBBAF12E
:10024000000F09D53878002802D05FF0090A03E0D2
:10025000D9F800A0BAF1010A5FEA0A1010F5C850F7
:1002600004002100684603F0D8FD00280DD0642367
:1002700010226946DFF8B80704F018FA6423102248
:100280006946DFF8B40704F011FABAF1010AB8F1CF
:100290000108D1E700221021300004F03AF9BDE84E
:1002A000FF870021B1F5807F0ADA425C612A05DB15
:1002B000425C7B2A02DA425C203A4254491CF1E754
:1002C000704770B504000D00DFF858670122102157
:1002D000300004F01EF92B00DBB20A2043432A0051
:1002E000D2B292B22100DFF8480704F0DFF9002211
:1002F0001021300004F00DF970BD70B50400012527
:10030000200005F098F8060029000A2005F097F86B
:1003100051EC100B05F0CCF8864201DB6D1CEFE7C9
:10032000280070BD2DE9F0410500DFF808670120C5
:100330003070DFF8FC46200004F08DF9DFF8F87625
:10034000380004F088F9287930280CD03BD33228C3
:1003500015D00ED334281ED017D3362827D020D35B
:1003600037282AD02FE04FF49660DFF8D0160860C7
:100370002BE04FF41660DFF8C416086025E04FF458
:100380009650DFF8B81608601FE04FF41650DFF8FB
:10039000AC16086019E04FF46150DFF8A016086051
:1003A00013E04FF49640DFF8941608600DE04FF428
:1003B0001640DFF88816086007E04FF46140DFF868
:1003C0007C16086001E000203070DFF87086D8F8F5
:1003D00000006060D8F800007860200004F0BEF8EB
:1003E000380004F0BBF84FF6FF70DFF854160880B1
:1003F00005F0D9FB4FF410710C00D8F8000005F09F
:1004000027FC41EC100B2100DFF8E40603F0C9FCE7
:10041000002801D100203070642005F02FFCBDE8D9
:10042000F081F8B5050000262878532801D1012075
:1004300006000822DFF80C16280005F033FC00281F
:1004400017D04FF488510C003000C0B205F00CFDFD
:1004500041EC100B2100DFF8F00503F0A2FC0028AE
:1004600006D00120DFF8CC150870DFF8E005067033
:1004700094E10722DFF8D815280005F013FC0028C6
:1004800017D04FF47C610C003000C0B205F0ECFCDA
:1004900041EC100B2100DFF8BC0503F082FC0028C2
:1004A00006D0DFF8B40506700120DFF88815087063
:1004B00074E10422DFF8A415280005F0F3FB0028FE
:1004C00016D04FF492510C003000C0B205F0CCFCB5
:1004D00041EC100B2100B2A003F063FC002806D011
:1004E000DFF8E00506700120DFF84815087055E1D7
:1004F0000722DFF86C15280005F0D4FB00280DD08A
:100500000120DFF830150870DFF85805067030005C
:10051000C0B2002801D005F0E3FD3FE10822DFF87A
:100520004815280005F0BEFB002832D0DFF85075D2
:100530003E704FF498610C003000C0B205F094FC9E
:1005400041EC100B2100DFF8240503F02AFC012008
:10055000DFF8E0140870DFF820050078002812D1D9
:100560003878002807D000224FF40051DFF800054A
:1005700003F0CFFF0CE001224FF40051DFF8F0044C
:1005800003F0C7FF04E01121DFF8F004FFF799FE44
:1005900004E10822DFF8DC14280005F083FB0028C2
:1005A0002AD0DFF8D4040078002805D01121DFF824
:1005B000CC04FFF786FEF1E0DFF8C40400780028E1
:1005C00004D00020DFF86C140870E7E0DFF8B40412
:1005D00006700120DFF85C1408704FF498510C008D
:1005E0003000C0B205F040FC41EC100B2100DFF8F8
:1005F000980403F0D6FBD1E00722DFF8901428001E
:1006000005F050FB002817D04FF474610C00300047
:10061000C0B205F029FC41EC100B2100DFF870049A
:1006200003F0BFFB002806D0DFF868040670012045
:10063000DFF800140870B1E00622DFF85C1428002F
:1006400005F030FB002818D04FF468610C00300032
:10065000C0B205F009FC41EC100B2100DFF83C04AE
:1006600003F09FFB002807D0DFF8340480F85660C1
:100670000120DFF8C013087090E00922DFF824148D
:10068000280005F00FFB002817D04FF438610C004C
:100690003000C0B205F0E8FB41EC100B2100DFF8A0
:1006A000080403F07EFB002806D0DFF80004067083
:1006B0000120DFF88013087070E00722DFF8F013E4
:1006C000280005F0EFFA002816D04FF470610C00F6
:1006D0003000C0B205F0C8FB41EC100B2100DFF880
:1006E000D40303F05EFB002805D0DFF8CC030670CE
:1006F0000120D049087051E00522DFF8C01328001E
:1007000005F0D0FA00282DD0DFF8B41308780028BF
:1007100003D03000C0B2002808D13000C0B2002899
:100720000CD0DFF8A0030078002807D10020C149D1
:1007300008701921E448FFF7C4FD12E00120BD4A0A
:1007400010700E704FF4C0710C003000C0B205F094
:100750008BFB41EC100B2100DC4803F022FB06F080
:10076000D5FF1BE0032288A1280005F09BFA002892
:1007700014D04FF430610C003000C0B205F074FBAF
:1007800041EC100B2100D24803F00BFB002804D0F1
:100790000120A8490870D7480670FFE7F1BD0000A6
:1007A000435300002DE9F04104009E4D0122102129
:1007B000280003F0AEFE01209E4908702000FFF7DC
:1007C0009CFD06003000C0B2C01C07F0F3F9070022
:1007D000002C02D42B20387005E02D20387020002A
:1007E00004F029FE04005FF001083000C0B2401C94
:1007F000804517DA3100C9B2B1EB08010A2004F0D4
:100800001EFE51EC100B04F053FE94FBF0F00A2195
:1008100090FBF1F201FB1200303007F8080018F1EC
:100820000108E2E70A203100C9B2394448700D20BE
:100830003100C9B23944887064233200D2B2D21C6C
:1008400092B239007A4803F031FF380007F0B4F96A
:1008500000221021280003F05CFEBDE8F0812DE9A4
:10086000F0412DED028BB0EE408AF0EE608A6D4CC7
:1008700001221021200003F04CFE01206D49087078
:1008800051EC180B04F014FEFFF737FD05002800AB
:10089000C0B2801D07F08EF9060051EC180B002243
:1008A000002307F08BF90AD22D20307053EC182B5F
:1008B0000020884907F09AF941EC180B01E02B2041
:1008C000307053EC182B0020834907F08FF907F0A4
:1008D0005FFA07005FF001082800C0B2404518DB4E
:1008E0002900C9B2891CB1EB08010A2004F0A7FD58
:1008F00051EC100B04F0DCFDB7FBF0F00A21B0FB6B
:10090000F1F201FB1200303006F8080018F101087E
:10091000E2E72E2006F8080018F101080A20B7FBCC
:10092000F0F00A21B0FBF1F201FB1200303006F8C2
:10093000080018F101080A20B7FBF0F100FB117064
:10094000303006F8080018F101080A2006F80800FF
:1009500018F101080D2006F8080018F101086423B9
:100960002A00D2B2921D92B23100314803F09EFEAD
:10097000300007F021F900221021200003F0C9FD0A
:10098000BDEC028BBDE8F08120570D0070B55348D7
:1009900043F6982101604FF434610C00006805F0C3
:1009A00057F941EC100B21004D4803F0FAF9394D8D
:1009B000002028702848002101703F4E002131702E
:1009C0004FF47C610C00007805F04EFA41EC100BFE
:1009D0002100204803F0E5F94FF474610C002878F9
:1009E00005F042FA41EC100B2100294803F0D9F937
:1009F0004FF470610C00307805F036FA41EC100BC2
:100A000021002C4803F0CDF900201D4908704FF457
:100A100098619FED340B154803F0C3F970BD0000D9
:100A20000CED00E00004004841560020BC550020B9
:100A3000744F00203B030020FC4F00209C0200204C
:100A40003803002064440108D84601083A03002016
:100A5000E04601087044010855560020E8460108A8
:100A6000F0460108505600207C440108F846010871
:100A700000080048884401083C0300203441010874
:100A80005756002056560020004701080847010825
:100A9000944401083D5600201047010818470108FA
:100AA00070510020A0440108444201086E56002005
:100AB00020470108544201083C56002028470108FD
:100AC0003E5600203F560020C8400108AC440108B3
:100AD000304701080000F0BF000059401802002014
:100AE0003847010800000000000000000400FA057B
:100AF00034420108400300202DE9F0472DED028B20
:100B00008AB00500DFF874AB01221021504603F0D3
:100B100000FDE8784D280ED128794F280BD168794F
:100B2000522808D1A8790D2805D1DFF8540B90ED93
:100B3000100BFFF794FEE878482811D1287949284E
:100B40000ED1687947280BD1A879482808D1E879CF
:100B50000D2805D1DFF82C0B90ED000BFFF77FFE81
:100B6000E878552817D12879202814D168794828A1
:100B700011D1A87949280ED1E87947280BD1287AD4
:100B8000482808D1687A0D2805D1DFF8E40B90EDEC
:100B9000000BFFF764FEE878502811D1287953281C
:100BA0000ED1687920280BD1A8794D2808D1E87991
:100BB0000D2805D1DFF8CC0A90ED020BFFF74FFEB0
:100BC000E878552811D1287950280ED16879532812
:100BD0000BD1A8794D2808D1E8790D2805D1DFF887
:100BE000900B90ED020BFFF73AFEE8784C280ED1FF
:100BF00028794F280BD16879572808D1A8790D2872
:100C000005D1DFF8800A90ED040BFFF728FEE878A5
:100C1000552814D12879202811D168794C280ED173
:100C2000A8794F280BD1E879572808D1287A0D28C0
:100C300005D1DFF83C0B90ED040BFFF710FEE878D0
:100C4000502811D1287953280ED1687920280BD14A
:100C5000A8794C2808D1E8790D2805D1DFF8240AB5
:100C600090ED060BFFF7FBFDE878552811D12879A8
:100C700050280ED1687953280BD1A8794C2808D177
:100C8000E8790D2805D1DFF8E80A90ED060BFFF7AB
:100C9000E6FDE878532814D12879492811D16879DC
:100CA00047280ED1A8794D280BD1E879412808D1E1
:100CB000287A0D2805D1DFF8C80990ED080BFFF759
:100CC000CEFDE878432811D128794F280ED16879D4
:100CD00052280BD1A879522808D1E8790D2805D1DE
:100CE000DFF89C0990ED060BFFF7B9FDE878442882
:100CF00014D12879452811D168794C280ED1A879CA
:100D000054280BD1E879412808D1287A0D2805D13B
:100D1000DFF86C0990ED160BFFF7A1FDE87850287D
:100D20001FD128794C281CD168790D2819D10120B0
:100D3000DFF80C1B08703C2007F082F80400DFF895
:100D400040098168009143680268DFF8281A200092
:100D500008F080FA3B212000FFF7B3FA200008F0EA
:100D600099FAE87850281FD1287947281CD168794A
:100D70000D2819D10120DFF8C81A08703C2007F0AF
:100D80005FF80400DFF8F808416900910369C26860
:100D9000DFF8E419200008F05DFA3B212000FFF79E
:100DA00090FA200008F076FAE878502824D12879C3
:100DB000532821D168790D281ED10120DFF8801A2F
:100DC000087001221021504603F0A3FB4FF4FA7380
:100DD0003222DFF8701ADFF8100C03F067FC0020F5
:100DE000DFF8641A08600120DFF8601A0870DFF885
:100DF000600ADFF8601A0860E8784B280BD1287980
:100E0000502808D168790D2805D1DFF84C0A90EDFB
:100E1000000BFFF724FD0522DFF8401A280004F03C
:100E200041FF002817D00120DFF8141A08700D20A8
:100E300006F0C0FE0400DFF8280AD0E90023DFF83E
:100E4000241A200008F006FA0D212000FFF739FAD5
:100E5000200008F01FFA0522DFF80C1A280004F021
:100E600021FF00281AD00120DFF8D41908701020C3
:100E700006F0A0FE0400DFF8F409D0E9000104F058
:100E800017FB0200DFF8E819200008F0E3F9102151
:100E90002000FFF716FA200008F0FCF9E878542843
:100EA0002BD12879452828D168794D2825D1A879D2
:100EB000502822D1E8790D281FD10120DFF88019B0
:100EC000087008F0F1FA04F0C3FE41EC180BDFF8EB
:100ED000880A007800280BD151EC180B0022DFF8AB
:100EE000743A08F059FB04F0E3FAFFF75BFC04E006
:100EF0000921DFF8700AFFF7E4F9E878542832D1C5
:100F000028794F282FD1687955282CD1A8795428D1
:100F100029D1E8790D2826D10120DFF8241908709D
:100F200008F00EFF08F08CFFDFF8300A0078002888
:100F300014D0DFF8384A94ED000ADFED5A0AB4EE17
:100F4000600AF1EE10FA01DB08F07AFF206809F080
:100F500003F841EC100BFFF782FC04E00921DFF8F5
:100F6000040AFFF7AEF9E878542811D1287943280C
:100F70000ED168794F280BD1A879522808D1E87989
:100F8000522805D1DFF8D80990ED040BFFF767FC74
:100F9000E8784F281DD1287955281AD16879542826
:100FA00017D1A879202814D1E879542811D1287AAA
:100FB00043280ED1687A4F280BD1A87A522808D13D
:100FC000E87A522805D1DFF8980990ED060BFFF773
:100FD00046FCE87854282ED128792B282BD1687923
:100FE000432828D1A8790D2825D10120DFF85018F1
:100FF000087008F059FA04F02BFE41EC180BDFF8EA
:1010000058090078002811D151EC180B0022DFF8A4
:10101000443908F0C1FADFF84829D2E9042308F07E
:10102000BFFF41EC100BFFF71AFC04E00921DFF8C9
:101030003409FFF746F9E8784F283AD1287954283F
:1010400037D168792B2834D1A879432831D1E87970
:101050000D282ED10120DFF8E817087008F070FE87
:1010600008F0EEFEDFF8F408007800281CD0DFF866
:10107000FC4894ED000ADFED0B0AB4EE600AF1EED5
:1010800010FA01DB08F0DCFE206808F065FFDFF8ED
:10109000D028D2E9062308F083FF41EC100BFFF7BC
:1010A000DEFB06E00100A8420921DFF8B808FFF7DF
:1010B00008F90522DFF8B018280004F0F3FD002835
:1010C0004FD00120DFF87817087008F039FE08F0DB
:1010D000B7FE08F0E9F90A2190FBF1F000EE100AE2
:1010E000B8EEC08A512006F065FD0400DFF8706894
:1010F000DFF87878DFF87808006808F02DFFCDE990
:101100000801DFF87008006808F026FFCDE9060145
:10111000386808F021FFD6E9062308F041FFCDE941
:101120000401386808F018FFCDE9020118EE100A32
:1011300008F012FF02000B00D6E9040108F030FFAE
:10114000CDE9000118EE100A08F006FF02000B00BE
:10115000DFF82418200008F07DF851212000FFF767
:10116000B0F80D22DFF81418280004F09BFD0028C9
:1011700004D0DFF80C080068FFF714FBE87850286B
:101180001AD12879452817D16879522814D1A8791D
:10119000492811D1E8794F280ED1287A44280BD15B
:1011A000687A0D2808D1DFF8DC0700684FF47A71FF
:1011B00090FBF1F0FFF7F6FAE878432813D128798D
:1011C0004C2810D1687945280DD1A87941280AD139
:1011D000E879522807D1287A0D2804D1DFF8800752
:1011E0004088FFF7DFFAE8784E2810D128794F2899
:1011F0000DD1687949280AD1A879532807D1E8790F
:10120000452804D1DFF858078088FFF7CBFAE87843
:1012100048280DD1287941280AD168795A2807D160
:10122000A879452804D1DFF83807C088FFF7BAFA53
:10123000E87846280AD128794F2807D168794728C5
:1012400004D1DFF81C070089FFF7ACFAE8784428DE
:1012500013D12879442810D1687952280DD1A87962
:1012600049280AD1E8795A2807D1287A5A2804D17E
:10127000DFF8EC064089FFF795FAE87844280AD1B0
:101280002879502807D16879522804D1DFF8D00690
:101290008089FFF787FAE8784C2810D12879492807
:1012A0000DD168794D280AD1A879492807D1E87964
:1012B000542804D1DFF8A806008CFFF773FAE87809
:1012C000432820D1287953281DD10120DFF870153B
:1012D00008700D2006F0B4FD0400DFF8A403D0E987
:1012E000140108F01BFF08F037FE02000B00DFF8C6
:1012F0009816200007F0AEFF0D212000FEF7E1FF59
:10130000200007F0C7FFE87853280AD128794C2835
:1013100007D16879492804D1DFF84406408CFFF7EB
:1013200041FA0922DFF86416280004F0BBFC00280B
:1013300004D0DFF85C060068FFF734FA0D22DFF80E
:101340005416280004F0AEFC002804D0DFF848064C
:101350000068FFF727FA0522DFF84016280004F09E
:10136000A1FC002804D0DFF83C060068FFF71AFA59
:101370000722DFF82C16280004F094FC002800F067
:1013800092800120DFF8B81408702D2006F012FCBE
:1013900081460024DFF80C060068844280F28080D9
:1013A000DFF8046606EBC400D0E9000104F080F821
:1013B0008046DFF8F80500EBC400D0E900230020E8
:1013C000DFF8EC1506F012FC41EC100B08F0DAFE29
:1013D00051EC100B08F0A2FE00EE100ADFEDA60A99
:1013E00080EE208ABDEEC80A10EE100AFEF785FFD7
:1013F00007001737002C38D106EBC400D0E90023D2
:101400000020DFF8501506F0F1FB41EC100B08F05E
:10141000B9FE51EC100B04F04BF80A2190FBF1F6E9
:1014200001FB1606012E10DB18EE100A08F094FDE1
:10143000CDE90201601C019000964346621CDFF872
:101440007415484607F006FF1EE018EE100A08F073
:1014500083FDCDE90201601C00904346621CDFF869
:101460005815484607F0F6FE0EE018EE100A08F090
:1014700073FDCDE90201601C00904346621CDFF859
:101480003815484607F0E6FE38000100C9B2484664
:10149000FEF717FF4FF4967004F0F0FB641C79E739
:1014A000484607F0F7FE0722DFF81015280004F081
:1014B000F9FB002805D0DFF8080590ED000BFFF7D9
:1014C000CEF9E87853280AD128794C2807D16879D1
:1014D000502804D1DFF88804808CFFF763F9E8789E
:1014E0004C2817D12879492814D168794D2811D171
:1014F000A87953280ED1E8794E280BD1287A4F28A5
:1015000008D1687A572805D1DFF8540490ED0A0B0A
:10151000FFF7A5F9E8784D2817D12879492814D183
:1015200068794E2811D1A87944280ED1E879552838
:101530000BD1287A522808D1687A0D2805D1DFF816
:10154000200490ED0C0BFFF78AF9E8784D2817D1AD
:101550002879492814D168794E2811D1A8794428CE
:101560000ED1E87945280BD1287A522808D1687A1B
:101570000D2805D1DFF8E80390ED0E0BFFF76FF9AA
:10158000E878432814D128794C2811D16879452866
:101590000ED1A87941280BD1E879522808D1287AB0
:1015A000502805D1DFF8B80390ED100BFFF757F97D
:1015B000E878422811D128794F280ED168794F2830
:1015C0000BD1A879532808D1E879542805D1DFF840
:1015D000900390ED120BFFF742F9E8784C280BD1FD
:1015E0002879532808D16879482805D1DFF8700395
:1015F000B0F85200FFF7D6F8E8784D2822D12879C4
:1016000049281FD168794E281CD1A879442819D1BE
:10161000E879552816D1287A522813D1687A4828B3
:1016200010D1A87A41280DD1E87A49280AD1287B1F
:101630004C2807D1687B0D2804D1C948B0F8540064
:10164000FFF7B0F8E87846286ED128794C286BD19E
:101650006879412868D1A879472865D100260C20EF
:1016600006F0A8FA0400002C0ED02000DFF8541376
:101670000C2208F0B9FD08E000007A44000400489C
:1016800010510020E05300200024A15DCE480078D6
:101690004118A155761CB249A25D91F850008218FC
:1016A000A255761CA25DC94800788218A255761C06
:1016B000A25D91F856008218A255761CA15DC4481F
:1016C00000784118A155761CA15DC24800784118E8
:1016D000A155761CA15DC04800784118A155761C23
:1016E000A15DBE4800784118A155761CA15DBC489B
:1016F00000784118A155761CA15DBA4800784118C0
:10170000A155761C0A20A055761C0D20A055761CEC
:1017100064230C222100B44802F0C8FF200006F028
:101720004BFA012046490870E8784D2815D12879F0
:10173000412812D1687958280FD1A8794D280CD1A9
:10174000E8794F2809D1287A522806D1687A0D28DD
:1017500003D1AE480068FFF725F80022102150465B
:1017600002F0D7FE0AB0BDEC028BBDE8F0870000A6
:1017700000540020D43E0108043F01082DE9F04147
:101780002DED028B07000E00B0465FFA88F80024AA
:101790002B480121017007EB080149780D2902D07F
:1017A00018F10108F7E7B8F1170F42DA9FED8F8BB8
:1017B0003000C0B240453EDA17F80800302803DB9D
:1017C00017F80800402803DB17F808002D281DD162
:1017D00017F808002D2815D0200004F039FA04006D
:1017E0000D0017F80800303804F032FA53EC182BCB
:1017F00006F0FCF922002B0008F0D2FB03F058FEA3
:1018000004000BE05FF0FF30444307E051EC180B9D
:101810000022504B07F0C0FE41EC180B53EC182B84
:1018200000204C4906F0E2F941EC180BB8F1010830
:10183000BEE7002101702000BDEC028BBDE8F08105
:101840003B030020383E0108B455002040560020DC
:1018500038510020B8550020F854002040470108B6
:10186000F05400206442010848470108E854002071
:101870007442010870B52DED048B05000C005D4825
:10188000012101702600F6B29FED5B8B05EB06018E
:1018900049780D2901D0761CF8E7172E50DA9FED14
:1018A000539B2000C0B2B0424CDAA85D212835DB42
:1018B000A85D402832DAA85D2D2823D0A85D2B280A
:1018C00020D0A85D30280EDBA85D303804F0C0F9C8
:1018D00053EC192B06F08AF953EC182B08F060FB37
:1018E00041EC180B22E051EC180B53EC192B07F0CC
:1018F00053FE41EC180B9FED421BB0EE419AF0EE07
:10190000619A13E0A85D2D2810D153EC182B00200C
:101910003D4906F06BF941EC180B07E051EC190B4F
:1019200000220C4B07F038FE41EC190B53EC192B3D
:101930000020084906F05AF941EC190B761EB0E771
:1019400000210170B0EE480AF0EE680ABDEC048B8D
:1019500070BD0000000024403A5600206856002068
:1019600070510020B844010850470108005600207B
:10197000900200208C0200200035010884420108FA
:10198000980200201802002094420108C444010873
:1019900014560020A4420108185600205847010898
:1019A000604701080802002000000020800000209D
:1019B00000408F401C400108E440010868470108CE
:1019C00000550020B4450108575600206E560020EF
:1019D0003E560020400300203A03002055560020C8
:1019E0003D5600203C560020744F002000000000AF
:1019F0000000F03F3B03002000000000000000005A
:101A00009A9999999999B93F0000F0BFB0020020C6
:101A10002DE9F84384B005000D22DFF8081B2800EB
:101A200004F040F900281CD00D212800FFF7A6FE85
:101A30000600002E15D4642E13DADFF8EC0A0660D7
:101A40004FF49A510C00300004F002F941EC100BF5
:101A50002100DFF8D80A02F0A4F90120DFF8D01A3B
:101A60000870E878412820D1287944281DD1687968
:101A700052281AD1A879202817D1DFF8B86A062190
:101A80002800FFF77BFE30604FF42C610C003068BB
:101A900004F0EAF941EC100B2100DFF89C0A02F097
:101AA00080F90120DFF8881A0870E878492849D1C0
:101AB0002879442846D16879202843D1E87B0D282D
:101AC00040D1DFF8300B00210160DFF8706A00219F
:101AD0003160002105290ADA02680A2305EB0104B6
:101AE000A479303C03FB02420260491CF2E7052165
:101AF00009290ADA32680A2305EB0104A479303C8B
:101B000003FB02423260491CF2E74FF43C610C00D7
:101B1000006804F0A9F941EC100B210098A002F034
:101B200040F94FF440610C00306804F09DF941EC3D
:101B3000100B2100DFF8080A02F033F90120DFF86A
:101B4000F0190870E878482814D12879492811D16B
:101B5000687947280ED1A87948280BD1E879202840
:101B600008D107220C21280005F0EAFF0120DFF848
:101B7000C0190870E878502822D1287953281FD13D
:101B8000687920281CD1A8794D2819D1E879202816
:101B900016D1DFF8B04907212800FFF76BFE84ED6E
:101BA000020B402194ED020BDFF89C0902F0F9F8DA
:101BB00000200100C9B2642902DA00BF401CF8E726
:101BC000E8784C2811D128794F280ED16879572808
:101BD0000BD1A879202808D106220C21280005F075
:101BE000AFFF0120DFF848190870E878502822D1AB
:101BF000287953281FD1687920281CD1A8794C282E
:101C000019D1E879202816D1DFF8384907212800B2
:101C1000FFF730FE84ED060BC02194ED060BDFF8D4
:101C20002C0902F0BEF800200100C9B2642902DAD2
:101C300000BF401CF8E7E878552829D128792028EA
:101C400026D16879482823D1A879492820D1E87974
:101C500047281DD1287A48281AD1687A202817D118
:101C6000DFF8EC4809212800FFF704FE84ED000BA3
:101C70004FF4506194ED000BDFF8D80802F091F8B2
:101C800000200100C9B2642902DA00BF401CF8E755
:101C9000E878552823D12879502820D1687953280D
:101CA0001DD1A8794D281AD1E879202817D1DFF85D
:101CB000A04807212800FFF7DDFD84ED020B4FF45B
:101CC000546194ED020BDFF8800802F06AF80020FE
:101CD0000100C9B2642902DA00BF401CF8E7E878C5
:101CE000552826D12879202823D168794C2820D15D
:101CF000A8794F281DD1E87957281AD1287A2028A9
:101D000017D1DFF84C4808212800FFF7B3FD84ED18
:101D1000040B4FF4586194ED040BDFF83C0802F01B
:101D200040F800200100C9B2642902DA00BF401C5B
:101D3000F8E7E878552825D12879502822D1687904
:101D400053281FD1A8794C281CD1E879202819D113
:101D5000DFF8FC4707212800FFF78CFD84ED060B18
:101D60004FF45C6194ED060BDFF8E00702F019F820
:101D700000200100C9B2642904DA00BF401CF8E762
:101D800069640000E878432822D128794C281FD1C3
:101D9000687945281CD1A879412819D1E8795228B9
:101DA00016D1287A202813D1DFF8B067082128003F
:101DB000FFF7E4FC70804FF420710C00708804F091
:101DC00053F841EC100B2100DFF8940701F0E9FF14
:101DD000E8784E2822D128794F281FD168794928E0
:101DE0001CD1A879532819D1E879452816D1287A29
:101DF000202813D1DFF8646708212800FFF7BEFC14
:101E0000B0804FF430710C00B08804F02DF841EC34
:101E1000100B2100DFF84C0701F0C3FFE8784828D9
:101E20001FD1287941281CD168795A2819D1A8795D
:101E3000452816D1E879202813D1DFF8206707213B
:101E40002800FFF79BFCF0804FF440710C00F088F5
:101E500004F00AF841EC100B2100DFF80C0701F048
:101E6000A0FFE87846281BD128794F2818D1687937
:101E7000472815D1A879202812D1DFF8E06606217D
:101E80002800FFF77BFC30814FF450710C00308943
:101E900003F0EAFF41EC100B2100A9A001F081FF43
:101EA000E878442825D12879442822D16879522815
:101EB0001FD1A87949281CD1E8795A2819D1287A44
:101EC0005A2816D1687A202813D1DFF890660921A4
:101ED0002800FFF753FC70814FF460710C0070898B
:101EE00003F0C2FF41EC100B2100DFF8800601F087
:101EF00058FFE87844281CD12879502819D16879EE
:101F0000522816D1A879202813D1DFF8506606216F
:101F10002800FFF733FCB0814FF470710C00B089DA
:101F200003F0A2FF41EC100B2100DFF8440601F0A2
:101F300038FFE878542820D1287943281DD16879C2
:101F40004F281AD1A879522817D1E879522814D1EC
:101F5000287A202811D1DFF8044608212800FFF74D
:101F60000DFC03F075FEC4E904014FF4B06194ED7B
:101F7000040BDFF8000601F014FFE8784F282AD19F
:101F80002879552827D16879542824D1A879202880
:101F900021D1E87954281ED1287A43281BD1687AA8
:101FA0004F2818D1A87A522815D1E87A522812D190
:101FB000287B20280FD1DFF8A4450C212800FFF74B
:101FC00059FC84ED060B4FF46C6194ED060BDFF8C1
:101FD000A80501F0E6FEE8784C2822D128794928A6
:101FE0001FD168794D281CD1A879492819D1E879E1
:101FF000542816D1287A202813D1DFF860650821EB
:102000002800FFF7BBFB30844FF480610C00308C5C
:1020100003F02AFF41EC100B2100DFF8600501F00E
:10202000C0FEE87853281FD128794C281CD1687944
:10203000492819D1A8794D2816D1E879202813D13B
:10204000DFF8186507212800FFF798FB70844FF42C
:1020500088610C00708C03F007FF41EC100B21002D
:10206000DFF81C0501F09DFEE87853281BD1287984
:102070004C2818D16879502815D1A879202812D178
:10208000DFF8D86406212800FFF778FBB0844FF40E
:1020900090610C00B08C03F0E7FE41EC100B2100C6
:1020A00079A001F07EFEE8784C2824D128794928CF
:1020B00021D168794D281ED1A87953281BD1E87900
:1020C0004E2818D1287A4F2815D1687A572812D16E
:1020D000A87A20280FD1DFF884440A212800FFF7CE
:1020E000C9FB84ED0A0B4FF4A06194ED0A0BDFF8F5
:1020F000940401F056FEE8784D2825D12879492826
:1021000022D168794E281FD1A87944281CD1E879BA
:10211000552819D1287A522816D1687A202813D147
:10212000DFF8384409212800FFF7A4FB84ED0C0BED
:102130004FF4C86194ED0C0BDFF84C0402E000BFD3
:10214000466F670001F02DFEE8784D2827D12879E9
:10215000492824D168794E2821D1A87944281ED154
:10216000E87945281BD1287A522818D1687A49285D
:1021700015D1A87A562812D1E87A20280FD1DFF895
:10218000DC430B212800FFF775FB84ED0E0B4FF4A9
:10219000D06194ED0E0BDFF8F40301F002FEE87855
:1021A000432821D128794C281ED1687945281BD194
:1021B000A879412818D1E879522815D1287A5028D1
:1021C00012D1687A20280FD1DFF890430921280026
:1021D000FFF750FB84ED100B4FF4D86194ED100B1A
:1021E000DFF8AC0301F0DDFDE87842281DD1287945
:1021F0004F281AD168794F2817D1A879532814D1BC
:10220000E879542811D1287A20280ED1DFF84C43E0
:1022100008212800FFF72EFB84ED120B4FF4E0613C
:1022200094ED120B99A001F0BCFDE8784D2830D157
:10223000287941282DD1687958282AD1A8794D28A4
:1022400027D1E8794F2824D1287A522821D1687AD9
:1022500020281ED1DFF83C6309212800FFF78EFA01
:102260003060306840F2D17188420FDB4FF480510A
:102270000C00306803F0ECFC41EC100B2100C64868
:1022800001F08FFD05E000BF534C50000020A8492D
:102290000870E8784C2817D12879532814D1687928
:1022A000482811D106212800FFF7E4FA51EC100B61
:1022B00003F0FEF8A949A1F852004FF448619FEDE0
:1022C000970BB64801F06DFDE8784D2826D12879A6
:1022D000492823D168794E2820D1A87944281DD1D6
:1022E000E87955281AD1287A522817D1687A4828CF
:1022F00014D1A87A412811D10D212800FFF7BAFA8C
:1023000051EC100B03F0D4F89449A1F854004FF4A9
:102310004C619FEDB90BA24801F043FDE8784328DA
:1023200016D12879532813D16879202810D19D4CD3
:1023300005212800FFF79EFA84ED140B4FF420616D
:1023400094ED140B984801F02CFD01207849087099
:1023500008229649280003F0A5FC002811D0944ECD
:1023600008212800FFF70AFA30604FF482510C0070
:10237000306803F06DFC41EC100B21008D4801F03A
:1023800010FD0C228C49280003F08CFC002811D091
:102390008A4E0C212800FFF7F1F930604FF4845188
:1023A0000C00306803F054FC41EC100B2100814814
:1023B00001F0F7FC04228249280003F073FC002896
:1023C0001BD0804E04212800FFF7D8F93060306818
:1023D000002801D5002030603068112801DB102072
:1023E00030604FF488510C00306803F031FC41EC50
:1023F000100B2100744801F0D4FC0422734928001A
:1024000003F050FC002843D006262C79303C687934
:10241000202805D00A21687901FB0404313C01E041
:10242000641E761E002C33D46648006884422FDA7E
:1024300030000100C9B22800FFF7A0F90700012F02
:1024400026DB6348874223DA41F2F06818EB041870
:10245000DFF88091380003F0FBFB09EBC402C2E90E
:10246000000109EBC40090ED000B684601F02FFC61
:102470000F224146684601F0CDFB00200100C9B2A1
:10248000642905DA00BF401CF8E700BF4C000000DB
:1024900005225149280003F005FC002815D04F4EB5
:1024A00005212800FFF7E6F951EC100B07F036FE86
:1024B00030604FF494510C00306807F04DFD41EC52
:1024C000100B2100464801F06CFC0522454928000C
:1024D00003F0E8FB002815D0434E05212800FFF744
:1024E000C9F951EC100B07F019FE30604FF496510A
:1024F0000C00306807F030FD41EC100B21003B4828
:1025000001F04FFC0A480078012803D1092138481E
:10251000FDF7D7FE05B0BDE8F08300BF0000000066
:1025200000002E40B442010898020020D044010867
:102530003B0300200C020020704701081402002019
:10254000DC440108E0530020784701088047010877
:10255000005400208847010890470108705100206E
:1025600098470108A0470108A8470108B04701089B
:10257000C4420108B8470108E8440108C0470108FF
:10258000C8470108D0470108F4440108D4420108B3
:10259000D8470108B0020020484101080045010861
:1025A000E4420108105100200C45010818450108BB
:1025B00014560020E0470108F44201081856002094
:1025C000E84701080802002004430108F047010819
:1025D000B882010000000020F84701088C020020AA
:1025E000004801080848010890020020104801082E
:1025F00024450108100200200000000000000040F7
:102600002DE9F84FC8B00400DFF8305D00202870D5
:102610002000FDF7CEFD2078412824D0422874D038
:10262000432800F08780442800F0C880482800F044
:10263000F0804C2800F011814D2800F021815028B5
:1026400000F07B81512800F0EA81522800F00982D5
:10265000532800F0B883562800F02786572800F04A
:10266000BD8600F07BBF0F22DFF8481D200003F07D
:1026700019FB00281FD028A8DFF83C1D802207F096
:10268000C3FDDFF8380D0068C60028AFDFF8308DD5
:1026900032003900404607F0A7FD41F2F07228A948
:1026A000DFF8200D07F0F4FD012028700921DFF884
:1026B000180DFDF706FE1022DFF8101D200003F0B4
:1026C000F1FA00281FD008A8DFF8041D802207F0C7
:1026D0009BFDDFF8E80C0068C60008AFDFF8F48C5B
:1026E00032003900404607F07FFD4FF4B75208A989
:1026F000DFF8E40C07F0CCFD012028700921DFF899
:10270000C80CFDF7DEFD00F02BBF0422DFF86C1DC6
:10271000200003F0C7FA00280AD02000FDF702FECF
:102720002878012804D10921DFF89C0CFDF7C9FDA8
:1027300000F016BFA078522829D10422DFF8401DEE
:10274000200003F0AFFA002815D0DFF8380D002282
:102750000023C0E900234FF4865190ED000BDFF811
:10276000280D01F01EFB012028701321DFF81C0D3D
:10277000FDF7A7FD20E02000FDF753FE2878012893
:102780001AD10921DFF8400CFDF79BFD14E0A07879
:102790004F2811D1E07853280ED1207945280BD14C
:1027A00060790D2808D103F09BFC012028700D21D1
:1027B000DFF8380DFDF785FD00F0D2BE0822DFF806
:1027C000301D200003F06EFA002820D00120287070
:1027D000DFF8200D0078002814D00120DFF8181D44
:1027E00008700921DFF8E00BFDF76BFDDFF80C0D39
:1027F00007F08FFE01224FF40051DFF8040D01F0C5
:1028000088FE04E01321DFF8FC0CFDF75AFD00F010
:10281000A7BE6078492812D1A07853280FD1E0785C
:1028200054280CD120794F2809D16079522806D13B
:10283000A079592803D101202870FDF7E1FC04227A
:10284000DFF86C1D200003F02DFA002803D02000D3
:1028500008F0EDFC287000F083BE0C22DFF8541D58
:10286000200003F01FFA002808D0FEF78FF8092196
:10287000DFF8540BFDF725FD0120287000F070BE35
:102880006078452857D1A078532854D1E078532850
:1028900051D1207941284ED1607947284BD1A07978
:1028A000452848D1207A302845DB207A3A2842DA78
:1028B000DFF8041D207A30380870DFF8002D10781A
:1028C00000280FD0002008700878002805D044F6B2
:1028D000BC50DFF8EC3C186004E04CF25030DFF8FC
:1028E000E03C186017780A22087802FB07070A37CD
:1028F0004FF4F8610E00380003F0AAF941EC100B18
:102900003100DFF8F80C01F04CFA4FF480510E0062
:10291000DFF8AC0C006803F09BF941EC100B3100C0
:10292000DFF8DC0C01F03DFA0921DFF89C0AFDF725
:10293000C8FC0120287000F013BEE0780D282ED1CD
:10294000DFF8C02C61780A23A07803FB0101B1F500
:1029500004714FF47A704143116043F69820116876
:10296000814200DA106010684EF66121884202DB75
:102970004EF6602010604FF434610E00106803F0D2
:1029800067F941EC100B3100DFF87C0C01F009FA1B
:102990000921DFF8340AFDF794FC012028706078E3
:1029A0004F283AD1A078522837D1E078542834D132
:1029B000DFF8586C300001F04EFEDFF80C7C6079D7
:1029C00030383860A079452802D14FF480603061FA
:1029D000A0794E2801D100203061300001F0BEFD09
:1029E0004FF6FF70DFF8E41B088003F0DCF84FF4CB
:1029F00028610E00386803F02BF941EC100B310010
:102A0000DFF80C0C01F0CDF90921DFF8BC09FDF766
:102A100058FC0120287000F0A3BD00F0A1BD607833
:102A200055281CD1A078492819D1E078432816D11F
:102A300020794B2813D16079202810D1A079432820
:102A40000DD1E0790D280AD10921DFF87C09FDF7C5
:102A500038FC012028700121002004F067FF00F0FD
:102A60007FBD6078442825D1A078202822D1E07845
:102A700041281FD1207944281CD16079522819D1CE
:102A8000A0790D2816D101202870082005F092F8B1
:102A90000600DFF8800B0268DFF87C1B300006F0D0
:102AA000D9FB08213000FDF70CFC300006F0F2FBEA
:102AB00000F056BD6078442876D1A078202873D1E4
:102AC000E078492870D1207944286DD160790D28AB
:102AD0006AD1DFF8486B01221021300001F019FDA6
:102AE000DFF83C7B4FF43C619FED490B4AA001F0BD
:102AF0006BFA51EC100B05F04BF93860DFF8248BC2
:102B00004FF440619FED450BDFF81C0B01F05CFAC0
:102B100051EC100B05F03CF9C8F800005FF000091B
:102B200042F21070B9F1050F11DA3968B1FBF0F11A
:102B30000A22B1FBF2F302FB1311303104AA02F8AE
:102B4000091019F101090A2190FBF1F0EAE74FF4AD
:102B50007A70B9F1090F12DAD8F80010B1FBF0F170
:102B60000A22B1FBF2F302FB1311303104AA02F87E
:102B7000091019F101090A2190FBF1F0E9E704A815
:102B80000A2141720D21817264230B2204A9DFF80E
:102B90007C0A01F08BFD00221021300001F0B9FC0D
:102BA0000120287000F0DCBC0A22DFF8801A200027
:102BB00003F078F8002835D06846DFF8741A102240
:102BC00007F022FBDFF82C090078002804D16846C2
:102BD0004421C1704121C170DFF8581A08680128EA
:102BE00004D168464F22C2724E2202730868002840
:102BF00006D168464F21C17246214173417B017362
:102C00000F216846FDF75DFB0120287000F0A8BC8D
:102C1000000000008018D640696400000000000039
:102C20000098B7406078442805D1A078202802D1C8
:102C30002000FDF761FF6078452815D1A078422873
:102C400012D1E0784F280FD120794F280CD160792C
:102C5000542809D1A0790D2806D10921DFF8680789
:102C6000FDF72FFBFDF796FA6078452840F0AA8023
:102C7000A078532840F0A680E078452840F0A28054
:102C80002079542840F09E8060790D2840F09A8089
:102C9000DFF8A40901210170DFF82479DFF89C191D
:102CA00039604FF430610E00007803F0DDF841EC3C
:102CB000100B3100DFF8880901F073F84FF48051F0
:102CC0000E00386802F0C4FF41EC100B3100DFF851
:102CD000300901F066F8FDF759FE0121002004F0EB
:102CE00025FEDFF82869300001F0B5FCDFF85489D3
:102CF000404601F0B0FC0120DFF84C1908700020BC
:102D0000DFF8481908700020DFF844190870002027
:102D1000DFF840190870DFF840794FF496603860AA
:102D2000386870603868C8F804000820DFF8981820
:102D30000860002030610020C8F81000DFF81C99FE
:102D4000002089F80000300001F008FC404601F046
:102D500005FC4FF6FF70DFF87418088002F023FFBF
:102D60004FF438610E0099F8000003F07DF841EC53
:102D7000100B3100DFF8E80801F013F84FF4107180
:102D80000E00386802F064FF41EC100B3100DFF8F0
:102D9000D40801F006F84FF428619FEDB10BDFF87D
:102DA000700800F0FEFF4FF4F8619FEDAF0BDFF805
:102DB0004C0800F0F6FF0921DFF80C06FDF781FA58
:102DC00001202870CCE36078452840F0AB80A078E3
:102DD000542840F0A780E078202840F0A380207994
:102DE000502840F09F806079452840F09B80A07972
:102DF0004C2840F09780DFF8400801210170DFF88F
:102E0000C077DFF838183960DFF85088002188F87B
:102E100000104FF430610E00007803F025F841EC0B
:102E2000100B3100DFF8180800F0BBFF4FF43861D9
:102E30000E0098F8000003F017F841EC100B310079
:102E4000DFF81C0800F0ADFF4FF480510E00386829
:102E500002F0FEFE41EC100B3100DFF8A40700F099
:102E6000A0FFDFF8A867300001F0F5FBDFF8D477AA
:102E7000380001F0F0FB0120DFF8CC1708700020CB
:102E8000DFF8C81708700020DFF8C41708700020AA
:102E9000DFF8C0170870DFF8C0874FF49660C8F8F5
:102EA0000000D8F800007060D8F8000078600820B2
:102EB000DFF814170860002030610020386130000E
:102EC00001F04CFB380001F049FB4FF6FF70DFF8D2
:102ED000FC16088002F067FE4FF410710E00D8F85F
:102EE000000002F0B5FE41EC100B3100DFF8740772
:102EF00000F057FF4FF428619FED590BDFF81007E2
:102F000000F04FFF4FF4F8619FED570BDFF8EC0630
:102F100000F047FF012028700921DFF8AC04FDF71D
:102F2000D0F91DE36078452840F03081A07854281E
:102F300040F02C81E078202840F028812079562824
:102F400040F024816079412840F02081A07949280F
:102F500040F01C81E079532840F01881207A412804
:102F600040F01481607A4C2840F01081A07A41280A
:102F700040F00C81DFF8E406012101704FF4386164
:102F80000E00007802F070FF41EC100B3100DFF80A
:102F9000D00600F006FFDFF8306409213000FDF7AD
:102FA00090F90020DFF8A01608700020DFF8A416C2
:102FB0000870DFF898B601208BF80000DFF89096D3
:102FC000002089F80000DFF844A6504601F043FBDA
:102FD000DFF884764FF4165038603868CAF8040079
:102FE000DFF8E4850720C8F800004FF48060CAF8D5
:102FF0001000DFF8C40502210170217B462911D1A0
:10300000617B53290ED10021DFF82C26117000219D
:103010008BF80010012189F800104CF25031DFF8D4
:10302000A0251160217B502935D1617B572932D1F0
:103030000021DFF888251170E17B1F2904D02029A9
:1030400008D0232914D018E04FF4FA61DFF8702576
:10305000116012E044F62061DFF8642511600CE095
:103060000000000000002040000000000000000000
:103070004CF25031DFF848251160217C322903D110
:103080000121DFF8B4251170217C302903D1002102
:10309000DFF8A4251170217B462912D1617B4429D8
:1030A0000FD10121DFF814251170217C502903D1A3
:1030B0000121DFF8842511704CF25031DFF8002532
:1030C0001160DFF8F81409780A22007802FB010188
:1030D00099F80090142000FB091919F10A095046CB
:1030E00001F03CFA4FF4F8618A46484602F0B0FD20
:1030F00041EC100B5146DFF8040500F052FE4FF48E
:1031000010718A46386802F0A3FD41EC100B51465D
:10311000DFF8500500F045FE4FF428610F00D8F8A5
:10312000000002F095FD41EC100B3900DFF8E004DF
:1031300000F037FE4FF480510F00DFF88404006880
:1031400002F086FD41EC100B3900DFF8B40400F00A
:1031500028FE4FF430610F00DFF8DC04007802F045
:1031600083FE41EC100B3900DFF8D40400F019FEA7
:103170004FF6FF70DFF85414088002F014FD0120B0
:10318000287009213000FDF79CF8E9E160784528B6
:1031900040F08080A07854287CD1E078202879D134
:1031A0002079422876D16079492873D1A0795228B4
:1031B00070D1DFF85864300001F04DFADFF88484F4
:1031C000404601F048FA0020DFF88414087000201F
:1031D000DFF8741408700020DFF870140870012004
:1031E000DFF870140870DFF870744FF49660386080
:1031F000386870603868C8F804000820DFF8C81321
:103200000860002030610020C8F81000DFF84C94FE
:10321000002089F80000300001F0A0F9404601F0DC
:103220009DF94FF6FF70DFF8A413088002F0BBFC95
:103230004FF438610E0099F8000002F015FE41ECE1
:10324000100B3100DFF8180400F0ABFD4FF41071E3
:103250000E00386802F0FCFC41EC100B3100DFF886
:10326000040400F09EFD4FF428619FEDC50BDFF8CC
:10327000A00300F096FD4FF4F8619FEDCB0BDFF853
:103280007C0300F08EFD09214F48FDF71AF801205C
:10329000287065E12000FDF7C4F82878012803D1E3
:1032A00009214948FDF70DF85AE10822DFF87418A2
:1032B000200002F0F7FC002849D00026404FDFF83C
:1032C000FC80D8F8000007EBC00050E90201DFF8ED
:1032D0005828DFF8583808F04DF902D801200600C8
:1032E00021E05FF00109D8F8000081451BDA394A76
:1032F00002EBC900D0E9000102EBC90252E9022346
:1033000004F05CFC0AD307EBC90050E9020107EBAB
:10331000C902D2E9002304F051FC01D201200600C9
:1033200019F10109DFE73000C0B2002808D00B21F5
:10333000DFF8FC07FCF7C5FF07E000BF3B030020F8
:103340000A21DFF8F007FCF7BCFF012028700822F3
:10335000DFF8E417200002F0A5FC002807D10522C1
:10336000DFF8D817200002F09DFC002821D00120B2
:1033700028700E2004F01EFC0600DFF8C40790ED54
:10338000000AB8EE400ADFED8F0A80EE200A10EE48
:10339000100A06F0E1FD02000B00DFF8A81730006C
:1033A00005F058FF0E213000FCF78BFF300005F0D0
:1033B00071FFD5E014430108383C010808020020E1
:1033C0008000002030450108244501085C410108C7
:1033D000B83C0108000000203C45010860785228F4
:1033E00040F0BB80A078202840F0B7800622DFF8AC
:1033F0005817200002F056FC00281CD0012028702D
:1034000001221021854801F084F84FF4FA7332222A
:10341000DFF85C177D4801F049F90020DFF8541708
:1034200008600120DFF850170870DFF83407DFF874
:103430005017086094E00522DFF81017200002F012
:1034400031FC002860D004212000FEF797F9060027
:10345000761E002E41D4DFF8F806006886423CDA7A
:10346000002E1DD1DFF8EC0600687B2810D0132158
:10347000DFF8E406FCF725FF0FE000BF184801085D
:103480002048010800550020284801087041010823
:103490002021DFF8C806FCF714FF0120287023E084
:1034A00001202870012210215C4801F032F84FF40D
:1034B000FA733222DFF8B816544801F0F7F800200A
:1034C000DFF8B01608600120DFF8AC160870DFF8EE
:1034D0009006DFF8AC16086006E01621DFF88406D7
:1034E000FCF7EFFE002028703AE000BF24430108FB
:1034F000484501083C0300204D5600200853002099
:1035000000080048844101080622DFF85C16DFF855
:103510005C0602F0C7FB00281CD0012028700122A5
:1035200010213E4800F0F5FF4FF4FA733222DFF825
:103530004016364801F0BAF80020DFF83816086067
:103540000120DFF834160870DFF83006DFF8301697
:10355000086005E02000FEF75BFA01E0002028701B
:103560002878002810D10020152803DA00212154E2
:10357000401CF9E70A21DFF80C06FCF7A2FE07E081
:1035800000000000000020400020DFF8FC1508705B
:103590001E484FF48071A0F85A1001F017F900206E
:1035A00049B0BDE8F08F00BF0000000000001440EB
:1035B0003048010834430108410300206D560020C3
:1035C000B00200200000C842A00200203803002002
:1035D00010B50400DFF8A005007800280CD1002009
:1035E000DFF8A81508704FF480700849A1F85A0058
:1035F0002000FFF705F8FFE710BD0000384801087C
:10360000484101081802002038470108744F002083
:10361000404801080C0200205445010800040048FD
:103620001002002014020020DC440108604501085B
:10363000544301089402002040030020F8240100B4
:1036400030470108FC4F0020420300206B56002049
:103650006C560020705600209C0200206E56002000
:1036600044420108344201082DE9F84F2DED068B44
:103670008AB0DFF81C050078002800F04D82DFF8E2
:10368000F8442078002800F04782DFF808552B0026
:10369000DFF8EC04006890ED000BDFF8FC24042157
:1036A000DFF8F80407F0AEFFDFF8C8040168052969
:1036B00040F02F82002020703C2004F07BFA8046EE
:1036C0002900042007F06EFFB0EE408AF0EE608A19
:1036D000DFF898440522DFF8C814200002F0E2FA6F
:1036E000002867D0DFF8C814042007F05BFFB0EEB5
:1036F000409AF0EE609ADFF8D804008802F0B4FB3C
:1037000002000B000020DFF8CC1405F045FF060096
:103710000F0051EC180B53EC192B07F08DFF320002
:103720003B0004F063FA41EC100B51EC100BDFF896
:10373000A824D2E9002307F07FFF41EC1A0BDFF841
:10374000CC040078002809D053EC1A2BDFF88C0445
:10375000D0E9140104F04AFA41EC1A0B51EC180BB1
:1037600001F0A6FEFCF7C9FD050051EC190B01F0B4
:103770009FFEFCF7C2FD451951EC1A0B01F098FEB3
:10378000FCF7BBFD4519293504958DED02AB8DED98
:10379000009B53EC182BDFF80C14404605F05AFD43
:1037A00004980100C9B24046FCF78BFD4FF49670B7
:1037B00002F064FA0522DFF89013200002F072FA9A
:1037C000002849D0DFF8E813042007F0EBFEB0EE44
:1037D000409AF0EE609A51EC180B53EC192B07F05D
:1037E0002BFF41EC1A0B51EC180B01F061FEFCF7BA
:1037F00084FD050051EC190B01F05AFEFCF77DFD2C
:10380000451951EC1A0B01F053FEFCF776FD4519F2
:1038100031350495DFF8C00380ED00AB4FF48651DD
:10382000B0EE4A0AF0EE6A0ADFF87C0300F0B9FA5B
:103830008DED02AB8DED009B53EC182BDB49404620
:1038400005F008FD04980100C9B24046FCF739FDB7
:103850004FF4967002F012FA0522BC49200002F0E3
:1038600021FA002800F0038104212000FDF786FFE3
:1038700005006D1ECE49042007F094FEB0EE409A7C
:10388000F0EE609A5FEA051919F5C059B048006872
:10389000401E854280F2CC80012D40F08380C548D7
:1038A000C54991ED000B80ED000B4FF4786190ED70
:1038B000000BC24800F075FAC14FC84EB06802F064
:1038C000D3FAC7E900014FF48C5197ED000BBD48C6
:1038D00000F067FAC24FBE48008802F0C5FA020045
:1038E0000B000020BB4905F057FE82468B4651EC89
:1038F000180B53EC192B07F09FFE52465B4604F061
:1039000075F907EBC502C2E9000107EBC500D0E974
:103910000001B14AD2E9002307F08EFE07EBC50291
:10392000C2E90001B948007800280DD007EBC500B6
:10393000D0E9000102000B00D6E9140104F056F9A9
:1039400007EBC502C2E9000107EBC500D0E900237F
:1039500000209D4904F04AF9C7E900017D487B2118
:10396000016080210E00006802F072F941EC100B3A
:103970003100964800F015FA97ED000B05A800F00D
:10398000A6F90F22B9F1100105A800F043F997ED4F
:10399000020B05A800F09BF90F22494605A800F08C
:1039A00039F958E08E4E8A48008802F05DFA02002C
:1039B0000B000020874905F0EFFD82468B4651EC55
:1039C000180B53EC192B07F037FE52465B4604F0F8
:1039D0000DF906EBC502C2E9000106EBC500D0E90E
:1039E00000017D4AD2E9002307F026FE06EBC5025E
:1039F000C2E900018548007800280CD006EBC5001C
:103A0000D0E900237548D0E9140104F0EFF806EB83
:103A1000C502C2E9000106EBC50090ED000B05A848
:103A200000F055F90F22494605A800F0F3F812E01E
:103A30006B4A02EBC5036B483C49C3E9000102EB4A
:103A4000C50090ED000B05A800F041F90F22494692
:103A500005A800F0DFF809216348FCF732FC0020DC
:103A60000100C9B2642902DA00BF401CF8E7052250
:103A70005E49200002F016F9002846D000205C497B
:103A800053EC182B05F088FD41EC190B51EC190B88
:103A90005FF03332574B07F06DFD32D851EC190B04
:103AA00001225FF0804304F089F82AD24B4880ED70
:103AB000149B4FF4206190ED140B4F4800F071F906
:103AC00051EC190B01F0F4FCFCF717FC11300490D9
:103AD00053EC192B4949404605F0BCFB0498010002
:103AE000C9B24046FCF7EDFB4FF492519FED440BF9
:103AF00045A000F056F9002807D00120434908707E
:103B000003E008214248FCF7DCFB404605F0C2FB1D
:103B100002E00168491C01600AB0BDEC068BBDE8FB
:103B2000F18F00006C4501089B9999999999B93FCB
:103B30007845010884450108904501084848010876
:103B4000B055002044430108504801085848010876
:103B500008020020AC55002098410108B03F010840
:103B6000385100201C41010860480108744E0020B3
:103B7000383E0108B455002040560020485100202E
:103B8000B85500209C4501085F5600203B030020EB
:103B900053560020000100204256002043560020CA
:103BA00068480108343F0108284801086C3E0108B4
:103BB00040010020F0540020B001002070480108AE
:103BC000E854002078480108000039408048010886
:103BD00036030020000079400055002010510020DD
:103BE000800000209A999999244501088848010885
:103BF000007092403333D33F0C450108AC410108BB
:103C0000000000000000F03F435300003F5600203A
:103C1000A84501082DE9F64F83B004000D005FF0C0
:103C20000009DFF82865DFF8307510231E22397887
:103C300089B2300008F059F980464046C0B20028E9
:103C400010D0B9F1640F0DDA19F1010910231E2209
:103C5000397889B2300008F048F980464046C0B251
:103C60000028EED1642002901020019000940223DD
:103C70002A0092B2397889B2300007F039FF8346C2
:103C80005FF0000A5846C0B2002816D0BAF1640F9F
:103C900013DA1AF1010A64200290042001900094C2
:103CA00002232A0092B2397889B2300007F020FF4F
:103CB00083465846C0B20028E8D15846C0B2002812
:103CC00001D1012000E0002005B0BDE8F08F70B503
:103CD0002DED028B0400B0EE408AF0EE608A0025E4
:103CE00051EC180B0022002303F068FF0BD22D20AB
:103CF000605553EC182B0020DFF8541403F076FFC6
:103D000041EC180B6D1CD5F106010A2001F097FB60
:103D100051EC100B01F0CCFB0600072D16DA300039
:103D200001F096FF02000B0051EC180B05F034FC7B
:103D300001F0BEFB0A2190FBF1F201FB12003030D2
:103D400060550A2096FBF0F66D1CE6E72E206055C4
:103D50006D1C51EC180B01F0ABFB01F079FF020078
:103D60000B0051EC180B07F067FC0022DFF8E4337E
:103D700003F03CFF01F09CFBDFF82414102D0DDA5A
:103D800090FBF1F20A2392FBF3F603FB162230328A
:103D900062550A2291FBF2F16D1CEFE7BDEC028B3C
:103DA00070BD70B52DED028B84B00400B0EE408A7A
:103DB000F0EE608A0D0015F12006B0EE480AF0EE34
:103DC000680A6846FFF783FF0422290089B22000B1
:103DD000FFF720FF002801D100201AE00020010099
:103DE000C9B2642902DA00BF401CF8E70F22310093
:103DF00089B26846FFF70EFF002801D1002008E0D5
:103E000000200100C9B2642902DA00BF401CF8E7B3
:103E1000012004B0BDEC028B70BD2DE9FE4F040003
:103E20000D005FF00008DFF8306310231E223178A8
:103E300089B2DFF8280308F058F807003800C0B24C
:103E4000002811D0B8F1640F0EDA18F10108102320
:103E50001E22317889B2DFF8F40208F046F8070034
:103E60003800C0B20028EDD1DFF8E0925FF0FF30FB
:103E7000029010200190009402232A0092B231781F
:103E800089B2484607F030FF83465FF0000A584683
:103E9000C0B2002817D0BAF1640F14DA1AF1010A7F
:103EA0005FF0FF30029010200190009402232A005E
:103EB00092B2317889B2484607F016FF83465846D9
:103EC000C0B20028E7D15846C0B2002801D1012075
:103ED00000E00020BDE8FE8F2DE9F0412DED068BBE
:103EE00084B00600B0EE408AF0EE608A9FED559BEC
:103EF00031006846FFF791FF002804D1B0EE480A70
:103F0000F0EE680A5BE000200E280ADA6946095CD8
:103F1000412904DBB0EE480AF0EE680A4FE0401C8D
:103F2000F2E75FF000086F4617F808002D2801D16E
:103F300018F10108B8F1070F15DA51EC190B00223E
:103F4000874B03F053FE04000D0017F808003038CB
:103F500001F07EFE22002B0006F022F841EC190B46
:103F600018F10108E6E718F101080024B8F10E0F76
:103F700008DA0A2117F8080001FB0404303C18F1A4
:103F80000108F3E7200001F063FE41EC1A0B53EC4B
:103F90001A2B7448744903F029FE53EC192B05F0D1
:103FA000FFFF41EC100B9DF800002D2807D153ECCA
:103FB000102B0020664903F019FE41EC100B04B0F1
:103FC000BDEC068BBDE8F08170B52DED048B82B0A1
:103FD0000400B0EE408AF0EE608A0D009FED699B10
:103FE00015F12006290089B26846FFF716FF19204F
:103FF00001F044FE00200100C9B2322902DA00BFFC
:10400000401CF8E79DF800002178884211D16846ED
:104010004178627891420CD18078A178884208D1A9
:10402000B0EE480AF0EE680A300080B2FFF754FFA5
:1040300003E0B0EE480AF0EE680A02B0BDEC048B73
:1040400070BD00000000000000000000F8B584B062
:10405000464C4FF488519FED460B4748FFF7B4FF9D
:1040600051EC100B01F024FA20604FF486519FEDC3
:10407000450B4248FFF7A8FF414880ED000B802127
:104080009FED400B4148FFF79FFF51EC100B01F0F3
:104090000FFA3F4908602068012855DB4FF4B755F7
:1040A00029006846FFF7B9FE9DF800004D2819D198
:1040B000684641784F2915D18078522812D10026C0
:1040C0002068864215DA1035324F07EBC60090EDB6
:1040D000000B2800FFF700FF07EBC60080ED000B88
:1040E000761CEDE74FF4B75322682A492A4808F0B6
:1040F00023FA41F2F0773E0031006846FFF78DFE6B
:104100009DF80000502819D168464178532915D1EF
:1041100080785F2812D100252068854214DA103695
:104120001E4F07EBC50090ED000B3000FFF7D4FEEB
:1041300007EBC50080ED000B6D1CEDE73B0022682E
:104140001649184808F0F8F905B0F0BD1C520020D7
:104150000000F0BF84D797413E030020C8510020E3
:10416000000024408DEDB5A0F7C6B03E0802002047
:104170000000000000003040B4430108304901084D
:104180000055002000000000000000003849010830
:10419000AC5500200000002050460108800000209F
:1041A000809698005C460108F8B403000025086872
:1041B000E840002800F0E18001260F6816FA05F0BB
:1041C00007403A00002A00F0D680087910F003007A
:1041D000012804D0087910F0030002281DD19F683F
:1041E0005FF0030C2800C0B240001CFA00FC37EA64
:1041F0000C07D1F80CC02800C0B240001CFA00FC2B
:104200005CEA07079F605868AE40B0434E68C6F34B
:104210000016AE40304304005C60087910F00300E3
:1042200003280ED0DE6803272800C0B24000874074
:10423000BE438F682800C0B2400087403E43340030
:10424000DC60087910F00300022818D12800C008AB
:1042500003EB8000066A0F2715F00700C0B280004C
:104260008740BE430F6915F00700C0B28000874049
:104270003E4334002800C00803EB800004621E683F
:1042800003272800C0B240008740BE430F7917F0D3
:1042900003072800C0B2400087403E4334001C6042
:1042A000486810F4403F66D0A048066856F0010602
:1042B0000660006810F00100009000989C4F2800F4
:1042C000800857F820605FF00F0C15F00300C0B2B3
:1042D00080001CFA00FC36EA0C06B3F1904F01D1C5
:1042E00000241EE09348834201D1012419E0924842
:1042F000834201D1022414E09048834201D1032477
:104300000FE08F48834201D104240AE08D488342A4
:1043100001D1052405E08C48834201D1062400E048
:10432000072415F00300C0B2800084402643280013
:10433000800847F82060854C206890434F68FF0252
:1043400000D510432060824E346894434F68BF020A
:1043500000D5144334607F4E306890434F68BF03EC
:1043600000D5104330607C4E346894434F68FF039F
:1043700000D5144334606D1C19E7F1BC70472DE97A
:10438000F041030000250800E840002800F0B48058
:10439000012616FA05F008400200002A00F0AA8063
:1043A000DFF88CC1280080085CF820000F2715F08A
:1043B000030E5FFA8EFE5FEA8E0E17FA0EFE1EEAFD
:1043C00000000400B3F1904F02D15FF0000E25E031
:1043D0005848834202D15FF0010E1FE056488342E5
:1043E00002D15FF0020E19E05448834202D15FF01F
:1043F000030E13E05248834202D15FF0040E0DE039
:104400005048834202D15FF0050E07E04E488342D8
:1044100002D15FF0060E01E05FF0070E15F0030019
:10442000C0B280001EFA00FE74452CD14A48D0F874
:1044300000E03EEA020EC0F800E04648D0F800E096
:104440003EEA020EC0F800E04148D0F800E03EEA43
:10445000020EC0F800E03D48D0F800E03EEA020E4F
:10446000C0F800E015F00300C0B2800017FA00F0B9
:104470000400280080085CF82000A043AE465FEAF4
:104480009E0E4CF82E005FF0030C1868AE465FFAE3
:104490008EFE5FEA4E0E1CFA0EFE30EA0E00186029
:1044A0002800C00803EB800E2800C00803EB800042
:1044B000D0F8208015F00700C0B28000874038EAAD
:1044C0000707CEF82070D8682F00FFB27F001CFAD3
:1044D00007F7B843D8605868AE4030EA06065E6019
:1044E0009E682800C0B240001CFA00FC36EA0C0CA2
:1044F000C3F808C06D1C46E7BDE8F08102001069F2
:104500000B009BB2184201D0012000E00020C0B295
:1045100070471300DBB2002B03D00B009BB283610A
:1045200002E00B009BB2836270470000181002404B
:10453000080001400004004800080048000C004842
:10454000001000480014004800180048080401400A
:104550000C040140040401400004014010B50400B3
:10456000002C01D1012035E0A0690028FFD1E06FC7
:10457000002805D1002084F87800200001F02AF8F6
:104580002420E06720680068400840002168086037
:10459000200000F018FB012801D101201AE0606A18
:1045A000002802D0200000F077FC2068406830F43A
:1045B0009040216848602068806830F02A002168B7
:1045C00088602068006850F00100216808602000C1
:1045D00000F0CFFC10BD10B50400002C01D101206B
:1045E00038E0E06F002805D1002084F87800200032
:1045F00000F0F0FF2420E0672068006840084000D9
:1046000021680860200000F0DEFA012801D10120B5
:1046100020E0606A002802D0200000F03DFC206805
:10462000406830F49040216848602068806830F02D
:104630002200216888602068806850F008002168A6
:1046400088602068006850F0010021680860200040
:1046500000F08FFC10BD10B50400002C01D101202A
:1046600023E02420E06720680068400840002168BB
:104670000860002021680860002021684860002050
:1046800021688860200001F062F80020C4F88400EE
:104690000020E0670020C4F8800000202066002091
:1046A0006066002084F87800002010BD2DE9FC47EA
:1046B00006000D0017009846F06F202859D1002DF4
:1046C00003D0380080B2002801D1012052E0002040
:1046D000C6F884002120F06707F06AFF8146A6F83B
:1046E0005070A6F85270B068B0F5805F05D130699F
:1046F000002802D10024AA4602E02C005FF0000A44
:10470000B6F85200002822D0CDF800804B46002297
:104710008021300000F096FC002803D02020F067B4
:10472000032027E0002C08D1BAF80000C005C00D16
:10473000316808851AF1020A03E02078316808859B
:10474000641CB6F85200401EA6F85200D8E7CDF817
:1047500000804B4600224021300000F073FC00280E
:1047600003D02020F067032004E02020F067002021
:1047700000E00220BDE8F68770B505000C001600C9
:10478000D5F8800020281FD1002C03D0300080B243
:10479000002801D1012018E0002028662868406820
:1047A00000020AD5286850E8000F50F08060010030
:1047B0002A6842E800100028F4D1320092B22100A9
:1047C000280000F08AFC00E0022070BD10B5040053
:1047D000206850E8000F30F490700100226842E831
:1047E00000100028F4D12068083050E8000F40087D
:1047F00040000100206810F1080242E80010002883
:10480000F1D1206E01280AD1206850E8000F30F065
:1048100010000100226842E800100028F4D120684E
:104820008068400622D52068083050E8000F30F03C
:1048300040000100206810F1080242E80010002842
:10484000F1D1606F002811D00020616F4863606F64
:1048500007F0B4FE002809D0606F07F000FF2028A1
:1048600004D11020C4F88400032011E00020A4F833
:104870005A000F20216808622068806950F0080003
:10488000216888612020C4F8800000202066002074
:1048900010BD2DE9F04706003068C7693068D0F8D0
:1048A00000803068D0F8089040F60F043C40002C9F
:1048B0000BD1B80609D55FEA886006D5B06E00282E
:1048C00002D03000B16E88477BE1002C00F0AA8056
:1048D0005FEAC97005D4DFF8980518EA000F00F008
:1048E000A18017F00100C0B200280BD05FEAC850C9
:1048F00008D5012031680862D6F8840050F0010024
:10490000C6F88400B8070DD519F00100C0B2002820
:1049100008D0022031680862D6F8840050F0040004
:10492000C6F8840078070DD519F00100C0B2002840
:1049300008D0042031680862D6F8840050F00200E4
:10494000C6F88400380710D55FEA886004D419F0EF
:104950000100C0B2002808D0082031680862D6F8EB
:10496000840050F00800C6F8840038050CD55FEAD2
:10497000481009D54FF4006031680862D6F8840009
:1049800050F02000C6F88400D6F88400002848D0F3
:10499000B80608D55FEA886005D5B06E002802D059
:1049A0003000B16E8847D6F8840005003068806812
:1049B000400602D415F0280F2DD0300000F005FC81
:1049C00030688068400622D53068083050E8000F13
:1049D00030F040000100306810F1080242E8001099
:1049E0000028F1D1706F00280DD0DFF88804716FB6
:1049F0004863706F07F007FE002812D0706F716F68
:104A0000496B88470DE0300007F02BFE09E03000CD
:104A100007F027FE05E0300007F023FE0020C6F86F
:104A20008400CEE0306E012840F0A980F80640F105
:104A3000A6805FEAC86040F1A28010203168086259
:104A400030688068400659D5706F0068D0F804A0BF
:104A5000504680B2002850D05046B6F8581080B268
:104A600088424AD2A6F85AA0706F8069202839D0AF
:104A7000306850E8000F30F480700100326842E87E
:104A800000100028F4D13068083050E8000F4008CA
:104A900040000100306810F1080242E800100028D0
:104AA000F1D13068083050E8000F30F040000100CC
:104AB000306810F1080242E800100028F1D12020EF
:104AC000C6F8800000203066306850E8000F30F0F3
:104AD00010000100326842E800100028F4D1706F25
:104AE00007F06CFD02207066B6F85810B6F85A0050
:104AF000091A89B2300007F0B5FD62E0B6F8580037
:104B0000B6F85AA0B0EB0A0AB6F85A00002835D019
:104B1000504680B2002831D0306850E8000F30F4A1
:104B200090700100326842E800100028F4D130682B
:104B3000083050E8000F400840000100306810F1D4
:104B4000080242E800100028F1D12020C6F88000B9
:104B5000002030660020B066306850E8000F30F06A
:104B600010000100326842E800100028F4D1022051
:104B70007066514689B2300007F074FD21E0F802FA
:104B80000AD55FEA492007D55FF4801031680862D2
:104B9000300007F068FD14E0380609D55FEA0860C8
:104BA00006D5F06E002802D03000F16E884708E08C
:104BB000780606D55FEA486003D5300000F041FB77
:104BC000FFE7BDE8F0872DE9F84304000027A1685E
:104BD0002069014360690143E0690143206802687C
:104BE000A54802400A43206802602068426832F407
:104BF0004052E068024320684260D4F81880206A7E
:104C000050EA08082068806830F4306058EA0000F4
:104C1000226890602068994A90421AD198480068AA
:104C200010F00300002805D002280CD008D3032878
:104C300003D00BE05FF0010999E05FF0020996E014
:104C40005FF0040993E05FF0080990E05FF010095D
:104C50008DE020688B4988421ED18948006810F495
:104C60004030002809D0B0F5803F0CD0B0F5003FAF
:104C70000CD0B0F5403F03D00BE05FF0000976E0C8
:104C80005FF0020973E05FF0040970E05FF008096B
:104C90006DE05FF010096AE020687B4988421ED110
:104CA0007748006810F44020002809D0B0F5802F24
:104CB0000CD0B0F5002F0CD0B0F5402F03D00BE096
:104CC0005FF0000953E05FF0020950E05FF0040973
:104CD0004DE05FF008094AE05FF0100947E0206806
:104CE0006A4988421ED16648006810F440100028C6
:104CF00009D0B0F5801F0CD0B0F5001F0CD0B0F576
:104D0000401F03D00BE05FF0000930E05FF00209C4
:104D10002DE05FF004092AE05FF0080927E05FF06A
:104D2000100924E020685A4988421ED1544800687E
:104D300010F44000002809D0B0F5800F0CD0B0F579
:104D4000000F0CD0B0F5400F03D00BE05FF000096E
:104D50000DE05FF002090AE05FF0040907E05FF090
:104D6000080904E05FF0100901E05FF01009E06954
:104D7000B0F5004F3ED14846C0B2002808D0012807
:104D80000AD002280CD004280CD008280ED010E03D
:104D900008F059F801000FE008F061F801000BE09D
:104DA0003C4909E008F01CF8010005E04FF400411F
:104DB00002E0002101200700002951D0606840086E
:104DC00010EB41006268B0FBF2F00600102E0ED32B
:104DD000B6F5803F0BD24FF6F0723240C6F3420078
:104DE00002431500280080B22268D06038E001201C
:104DF000070035E04846C0B2002808D001280AD094
:104E000002280CD004280CD008280ED010E008F09E
:104E10001AF801000FE008F022F801000BE01D492C
:104E200009E007F0DDFF010005E04FF4004102E07A
:104E3000002101200700002912D0606811EB50000A
:104E40006268B0FBF2F00600102E07D3B6F5803F83
:104E500004D2300080B22268D06001E00120070057
:104E60000020A0660020E0663800C0B2BDE8F283F2
:104E70002001000429520008F369FFEF00380140C7
:104E8000301002400044004000480040004C004008
:104E90000050004000127A0090F82410C90707D58E
:104EA00001684A6832F40032816A0A4301684A6044
:104EB00090F82410890707D501684A6832F48032D7
:104EC000C16A0A4301684A6090F82410490707D56F
:104ED00001684A6832F48022016B0A4301684A6023
:104EE00090F82410090707D501684A6832F4004297
:104EF000416B0A4301684A6090F82410C90607D53F
:104F000001688A6832F48052816B0A4301688A60C2
:104F100090F82410890607D501688A6832F4005297
:104F2000C16B0A4301688A6090F82410490613D5C2
:104F300001684A6832F48012016C0A4301684A60D1
:104F4000016CB1F5801F07D101684A6832F4C002D4
:104F5000416C0A4301684A6090F82410090607D59D
:104F600001684A6832F40022816C0A4301684A6091
:104F7000704738B504000020C4F8840007F018FB1F
:104F800005002068006800071DD57FF07E40009076
:104F90002B0000225FF40011200000F053F80028DD
:104FA00011D0206850E8000F30F080000100226826
:104FB00042E800100028F4D12020E067002084F8A7
:104FC000780003203DE02068006840072CD57FF082
:104FD0007E4000902B0000225FF48001200000F052
:104FE00031F8002820D0206850E8000F30F490708D
:104FF0000100226842E800100028F4D1206808303F
:1050000050E8000F400840000100206810F108023D
:1050100042E800100028F1D12020C4F880000020D0
:1050200084F8780003200CE02020E0672020C4F8FA
:1050300080000020206600206066002084F8780050
:10504000002032BD2DE9F04105000E0090461F0002
:10505000069C2868C0693040B04201D1012000E0C0
:1050600000204146C9B2884234D114F1010FF0D07A
:1050700007F09EFAC01B844201D3002C01D103200B
:1050800029E0286800684007E3D52868C069000760
:105090000DD5082029680862280000F096F808203D
:1050A000C5F88400002085F87800012013E0286806
:1050B000C0690005CDD54FF400602968086228005A
:1050C00000F083F82020C5F88400002085F87800DF
:1050D000032000E00020BDE8F08130B403005965F2
:1050E000A3F85820A3F85A20002098669868B0F5D5
:1050F000805F0BD11869002804D140F2FF10A3F89B
:105100005C0023E0FF20A3F85C001FE09868002803
:105110000AD11869002803D1FF20A3F85C0015E02C
:105120007F20A3F85C0011E09868B0F1805F0AD19D
:105130001869002803D17F20A3F85C0006E03F2017
:10514000A3F85C0002E00020A3F85C000020C3F894
:1051500084002220C3F880001868083050E8000F4F
:1051600050F001000400186810F1080545E80040FF
:105170000028F1D19868B0F5805F06D11869002841
:1051800003D10FF2CD10986602E00FF2E1009866AD
:10519000186900280BD0186850E8000F50F4907080
:1051A00004001D6845E800400028F4D10AE01868B2
:1051B00050E8000F50F0200004001D6845E8004052
:1051C0000028F4D1002030BC7047016851E8001F6E
:1051D00031F490710A00036843E800210029F4D1FA
:1051E0000168083151E8001F490849000A000168B8
:1051F00011F1080343E800210029F1D1016E0129D2
:105200000AD1016851E8001F31F010010A0003685B
:1052100043E800210029F4D12021C0F880100021AA
:10522000016600218166704738B50400656A002078
:10523000A5F85A000020A5F85200280007F011FA3E
:1052400031BD10B50400206850E8000F30F0400078
:105250000100226842E800100028F4D12020E06715
:105260000020E066200007F029FE10BD70B50500A3
:10527000B5F85C60D5F88000222862D12868808C5F
:10528000040016EA0400696D0870686D401C6865CA
:10529000B5F85A00401EA5F85A00B5F85A00002883
:1052A00055D1286850E8000F30F4907001002A684A
:1052B00042E800100028F4D12868083050E8000FB8
:1052C000400840000100286810F1080242E8001080
:1052D0000028F1D12020C5F880000020A866002019
:1052E00068662868406800020AD5286850E8000F00
:1052F00030F0806001002A6842E800100028F4D1F4
:10530000286E012819D100202866286850E8000F6F
:1053100030F0100001002A6842E800100028F4D1A3
:105320002868C069C00602D5102029680862B5F84F
:105330005810280007F096F909E0280007F0BFFD93
:1053400005E02868806950F008002968886170BD10
:10535000F8B50500B5F85C70D5F88000222863D157
:105360002868808C0400686D060017EA040030800D
:10537000686D801C6865B5F85A00401EA5F85A0093
:10538000B5F85A00002855D1286850E8000F30F4CD
:10539000907001002A6842E800100028F4D12868C3
:1053A000083050E8000F400840000100286810F164
:1053B000080242E800100028F1D12020C5F8800042
:1053C0000020A866002068662868406800020AD5A8
:1053D000286850E8000F30F0806001002A6842E839
:1053E00000100028F4D1286E012819D10020286669
:1053F000286850E8000F30F0100001002A6842E8E9
:1054000000100028F4D12868C069C00602D5102019
:1054100029680862B5F85810280007F023F909E058
:10542000280007F04CFD05E02868806950F008006E
:1054300029688861F1BD002848BF4042704738B5EF
:105440002DED028B04000D00280000F001FC41EC62
:10545000110BB0EE418AF0EE618A200000F0F8FBFB
:1054600041EC100BB0EE481AF0EE681A07F02BFD75
:10547000BDEC028B31BD30B4002513E050F8042B95
:10548000D30744BFA9F101039A18091F042942F860
:10549000045BFAD213468C0744BF15809B1CC907D6
:1054A00048BF1D7050F8041B0029E7D130BC70477D
:1054B000C1F30A5340F2FE329B1A14DDD3F12003EC
:1054C0004FEAE17208DDC90241EA505141F0004063
:1054D000D84080185040704703F2E13010B1D243F9
:1054E00082F00040704700207047B1F5807F02D302
:1054F0004FF0FF3070470170012070470078401E68
:105500008041C043C00F704780B5DFF8EC0607F05C
:10551000E2FC01BD80B5DFF8E406DFF8E4160160C7
:105520004FF496614160002181600021C16000213B
:1055300001610C214161002181610021C1610021D3
:10554000016200214162FFF709F8002801D002F052
:10555000DBF801BD80B5DFF8AC06DFF8AC16016002
:105560004FF496614160002181600021C1600021FB
:1055700001610C214161002181610021C161002193
:10558000016200214162FEF7E9FF002801D002F02C
:10559000BBF801BD80B5DFF87406DFF87416016052
:1055A0005FF4E1314160002181600021C160002190
:1055B00001610C214161002181610021C161002153
:1055C000016200214162FFF706F8002801D002F0D5
:1055D0009BF801BD38B586B00400142100226D4649
:1055E000280007F08FFC2068DFF8141688422ED1BF
:1055F000DFF82006016851F400210160006810F412
:10560000002005900598DFF81006016851F400218C
:105610000160006810F40020059005984FF4406088
:1056200000900220019000200290032003900520AA
:1056300004906946DFF8E405FEF7B6FD012201217A
:10564000342007F020FD342007F032FD7DE0206893
:10565000DFF8B415884246D1DFF8B805016851F487
:1056600080110160006810F4801005900598DFF843
:10567000A805016851F400210160016811F40021BE
:1056800005910599016851F480110160006810F4DA
:105690008010059005984FF48050009002200190F2
:1056A0000020029003200390052004906946DFF853
:1056B0006C05FEF779FD0420009002200190002087
:1056C000029003200390052004906946DFF85005FE
:1056D000FEF76AFD00220021352007F0D4FC3520BA
:1056E00007F0E6FC31E02068DFF8241588422CD171
:1056F000DFF82005016851F400310160006810F402
:10570000003005900598DFF81005016851F48021FC
:105710000160006810F48020059005980820009032
:105720001220019000200290032003900720049093
:105730006946DFF8F004FEF737FD0022002126203D
:1057400007F0A1FC262007F0B3FC07B030BD10B570
:1057500004002068DFF8A81488420FD1DFF8B404F1
:10576000016831F4002101604FF44061DFF8AC04BE
:10577000FEF705FE342007F0A2FC2CE02068DFF8DD
:105780008814884214D1DFF88C04016831F4801148
:1057900001604FF48051DFF88404FEF7F0FD04212E
:1057A000DFF87C04FEF7EBFD352007F088FC12E003
:1057B0002068DFF85C1488420DD1DFF858040168D6
:1057C00031F4003101600821DFF85804FEF7D7FDFD
:1057D000262007F074FC10BD20210170312141709A
:1057E000302181703121C170302141730173C17248
:1057F000817241720D2101740521DFF82C24117092
:105800007047DFF82804017811F0FC01017010F1F5
:105810000C014160704770B40300002000260A00AC
:10582000511E92B2002A12D01D7875405B1C2A00CE
:10583000D2B295EA12152C0090EA04152200D2B2D9
:1058400095EAD2052E0094EA44121000E7E7C0B2B0
:10585000F6B250EA062080B270BC7047F8B5DFF8A7
:10586000CC43207810F0030F00D00024002C1DD072
:10587000207810F0FC0050F0010020701025FF2669
:10588000676832002900380007F03CFBAA206168F5
:1058900008745520616848740320616848820020BC
:1058A0006168087515206081608920812000F2BD43
:1058B00001004FF48070B1F90810401A00B270472F
:1058C0002DE9F04704000D001600300007F01CFC25
:1058D00007007F1C2000FFF7EBFF3900C9B2C91C8D
:1058E000884201DA01203AE06068408A801C6168E1
:1058F00048823800C0B2C01C6168628988526089E1
:10590000801C60812089801C20816068408A401C46
:10591000616848826068618945546089401C608183
:105920002089401C20816068408A50FA87F06168B5
:105930004882B8465FFA88F8B1466068618900EB32
:10594000010A42464946504604F04EFC608950FA2E
:1059500087F06081208950FA87F020810020BDE81F
:10596000F08738B52DED028B88B004000D00B0EE45
:10597000408AF0EE608A53EC182BAD49684603F07C
:1059800069FC6A462900C9B22000FFF799FF08B0F8
:10599000BDEC028B32BD38B504002089B0F1120194
:1059A00089B260681230FFF736FF05002000FFF76C
:1059B0007FFF022801DA01200BE0290089B2090AE1
:1059C00051EA05216068628981522089801C20810A
:1059D000002032BD01B5012210219248FEF799FD49
:1059E0000A23012269468548FEF760FE01BD70B5B5
:1059F0000500FFF706FFFFF731FF0400002C00F061
:105A0000D180286800F030FA00228A4B03F0C4FDF0
:105A100041EC100B15212000FFF7A3FF002840F0F8
:105A2000C180686800F020FA0022824B03F0B4FDC8
:105A300041EC100B14212000FFF793FF002840F0E9
:105A4000B180A86800F010FA41EC100B132120007F
:105A5000FFF787FF002840F0A580E86800F004FA0F
:105A60000022744B03F098FD41EC100B172120002D
:105A7000FFF777FF002840F09580286900F0F4F9DF
:105A800000226C4B03F088FD41EC100B1621200026
:105A9000FFF767FF002840F08580686900F0E4F9AF
:105AA00041EC100B12212000FFF75BFF002879D199
:105AB00061480078002819D0604E96ED000B1F2138
:105AC0002000FFF74EFF96ED020B20212000FFF78C
:105AD00048FF96ED040B21212000FFF742FF96EDD1
